{
  "address": "0xa5Ee89541B125f4e46eDBbE9e8d45637722dE9C9",
  "abi": [
    {
      "inputs": [],
      "stateMutability": "nonpayable",
      "type": "constructor"
    },
    {
      "anonymous": false,
      "inputs": [
        {
          "indexed": true,
          "internalType": "address",
          "name": "owner",
          "type": "address"
        },
        {
          "indexed": true,
          "internalType": "address",
          "name": "approved",
          "type": "address"
        },
        {
          "indexed": true,
          "internalType": "uint256",
          "name": "tokenId",
          "type": "uint256"
        }
      ],
      "name": "Approval",
      "type": "event"
    },
    {
      "anonymous": false,
      "inputs": [
        {
          "indexed": true,
          "internalType": "address",
          "name": "owner",
          "type": "address"
        },
        {
          "indexed": true,
          "internalType": "address",
          "name": "operator",
          "type": "address"
        },
        {
          "indexed": false,
          "internalType": "bool",
          "name": "approved",
          "type": "bool"
        }
      ],
      "name": "ApprovalForAll",
      "type": "event"
    },
    {
      "anonymous": false,
      "inputs": [
        {
          "indexed": false,
          "internalType": "string",
          "name": "name",
          "type": "string"
        },
        {
          "indexed": false,
          "internalType": "string",
          "name": "profileId",
          "type": "string"
        },
        {
          "indexed": false,
          "internalType": "string",
          "name": "tags",
          "type": "string"
        },
        {
          "indexed": false,
          "internalType": "uint256",
          "name": "tokenId",
          "type": "uint256"
        }
      ],
      "name": "MembershipCreated",
      "type": "event"
    },
    {
      "anonymous": false,
      "inputs": [
        {
          "indexed": true,
          "internalType": "address",
          "name": "previousOwner",
          "type": "address"
        },
        {
          "indexed": true,
          "internalType": "address",
          "name": "newOwner",
          "type": "address"
        }
      ],
      "name": "OwnershipTransferred",
      "type": "event"
    },
    {
      "anonymous": false,
      "inputs": [
        {
          "indexed": true,
          "internalType": "address",
          "name": "from",
          "type": "address"
        },
        {
          "indexed": true,
          "internalType": "address",
          "name": "to",
          "type": "address"
        },
        {
          "indexed": true,
          "internalType": "uint256",
          "name": "tokenId",
          "type": "uint256"
        }
      ],
      "name": "Transfer",
      "type": "event"
    },
    {
      "inputs": [
        {
          "internalType": "address",
          "name": "to",
          "type": "address"
        },
        {
          "internalType": "uint256",
          "name": "tokenId",
          "type": "uint256"
        }
      ],
      "name": "approve",
      "outputs": [],
      "stateMutability": "nonpayable",
      "type": "function"
    },
    {
      "inputs": [
        {
          "internalType": "address",
          "name": "owner",
          "type": "address"
        }
      ],
      "name": "balanceOf",
      "outputs": [
        {
          "internalType": "uint256",
          "name": "",
          "type": "uint256"
        }
      ],
      "stateMutability": "view",
      "type": "function"
    },
    {
      "inputs": [
        {
          "internalType": "uint256",
          "name": "tokenId",
          "type": "uint256"
        }
      ],
      "name": "getApproved",
      "outputs": [
        {
          "internalType": "address",
          "name": "",
          "type": "address"
        }
      ],
      "stateMutability": "view",
      "type": "function"
    },
    {
      "inputs": [
        {
          "internalType": "address",
          "name": "owner",
          "type": "address"
        },
        {
          "internalType": "address",
          "name": "operator",
          "type": "address"
        }
      ],
      "name": "isApprovedForAll",
      "outputs": [
        {
          "internalType": "bool",
          "name": "",
          "type": "bool"
        }
      ],
      "stateMutability": "view",
      "type": "function"
    },
    {
      "inputs": [
        {
          "internalType": "address",
          "name": "recipient",
          "type": "address"
        },
        {
          "internalType": "string",
          "name": "name",
          "type": "string"
        },
        {
          "internalType": "string",
          "name": "profileId",
          "type": "string"
        },
        {
          "internalType": "string",
          "name": "tags",
          "type": "string"
        },
        {
          "internalType": "string",
          "name": "tokenURI",
          "type": "string"
        }
      ],
      "name": "mintNFT",
      "outputs": [
        {
          "internalType": "uint256",
          "name": "",
          "type": "uint256"
        }
      ],
      "stateMutability": "nonpayable",
      "type": "function"
    },
    {
      "inputs": [],
      "name": "name",
      "outputs": [
        {
          "internalType": "string",
          "name": "",
          "type": "string"
        }
      ],
      "stateMutability": "view",
      "type": "function"
    },
    {
      "inputs": [],
      "name": "owner",
      "outputs": [
        {
          "internalType": "address",
          "name": "",
          "type": "address"
        }
      ],
      "stateMutability": "view",
      "type": "function"
    },
    {
      "inputs": [
        {
          "internalType": "uint256",
          "name": "tokenId",
          "type": "uint256"
        }
      ],
      "name": "ownerOf",
      "outputs": [
        {
          "internalType": "address",
          "name": "",
          "type": "address"
        }
      ],
      "stateMutability": "view",
      "type": "function"
    },
    {
      "inputs": [],
      "name": "renounceOwnership",
      "outputs": [],
      "stateMutability": "nonpayable",
      "type": "function"
    },
    {
      "inputs": [
        {
          "internalType": "address",
          "name": "from",
          "type": "address"
        },
        {
          "internalType": "address",
          "name": "to",
          "type": "address"
        },
        {
          "internalType": "uint256",
          "name": "tokenId",
          "type": "uint256"
        }
      ],
      "name": "safeTransferFrom",
      "outputs": [],
      "stateMutability": "nonpayable",
      "type": "function"
    },
    {
      "inputs": [
        {
          "internalType": "address",
          "name": "from",
          "type": "address"
        },
        {
          "internalType": "address",
          "name": "to",
          "type": "address"
        },
        {
          "internalType": "uint256",
          "name": "tokenId",
          "type": "uint256"
        },
        {
          "internalType": "bytes",
          "name": "_data",
          "type": "bytes"
        }
      ],
      "name": "safeTransferFrom",
      "outputs": [],
      "stateMutability": "nonpayable",
      "type": "function"
    },
    {
      "inputs": [
        {
          "internalType": "address",
          "name": "operator",
          "type": "address"
        },
        {
          "internalType": "bool",
          "name": "approved",
          "type": "bool"
        }
      ],
      "name": "setApprovalForAll",
      "outputs": [],
      "stateMutability": "nonpayable",
      "type": "function"
    },
    {
      "inputs": [
        {
          "internalType": "bytes4",
          "name": "interfaceId",
          "type": "bytes4"
        }
      ],
      "name": "supportsInterface",
      "outputs": [
        {
          "internalType": "bool",
          "name": "",
          "type": "bool"
        }
      ],
      "stateMutability": "view",
      "type": "function"
    },
    {
      "inputs": [],
      "name": "symbol",
      "outputs": [
        {
          "internalType": "string",
          "name": "",
          "type": "string"
        }
      ],
      "stateMutability": "view",
      "type": "function"
    },
    {
      "inputs": [
        {
          "internalType": "uint256",
          "name": "tokenId",
          "type": "uint256"
        }
      ],
      "name": "tokenURI",
      "outputs": [
        {
          "internalType": "string",
          "name": "",
          "type": "string"
        }
      ],
      "stateMutability": "view",
      "type": "function"
    },
    {
      "inputs": [
        {
          "internalType": "address",
          "name": "from",
          "type": "address"
        },
        {
          "internalType": "address",
          "name": "to",
          "type": "address"
        },
        {
          "internalType": "uint256",
          "name": "tokenId",
          "type": "uint256"
        }
      ],
      "name": "transferFrom",
      "outputs": [],
      "stateMutability": "nonpayable",
      "type": "function"
    },
    {
      "inputs": [
        {
          "internalType": "address",
          "name": "newOwner",
          "type": "address"
        }
      ],
      "name": "transferOwnership",
      "outputs": [],
      "stateMutability": "nonpayable",
      "type": "function"
    }
  ],
  "transactionHash": "0x31b1f2da4677b528095e7a4e1cd2f706c884330138960194f56aa900d013e614",
  "args": [],
  "numDeployments": 3,
  "solcInputHash": "a6366c8d3cac5e8c0225167b5a1db91c",
  "bytecode": "0x60806040523480156200001157600080fd5b5060408051808201825260068152650c45ce8e4c2f60d31b6020808301918252835180850190945260048452630a8a482b60e31b9084015281519192916200005c91600091620000eb565b50805162000072906001906020840190620000eb565b5050506200008f620000896200009560201b60201c565b62000099565b620001ce565b3390565b600780546001600160a01b038381166001600160a01b0319831681179093556040519116919082907f8be0079c531659141344cd1fd0a4f28419497f9722a3daafe3b4186f6b6457e090600090a35050565b828054620000f99062000191565b90600052602060002090601f0160209004810192826200011d576000855562000168565b82601f106200013857805160ff191683800117855562000168565b8280016001018555821562000168579182015b82811115620001685782518255916020019190600101906200014b565b50620001769291506200017a565b5090565b5b808211156200017657600081556001016200017b565b600181811c90821680620001a657607f821691505b60208210811415620001c857634e487b7160e01b600052602260045260246000fd5b50919050565b611a3d80620001de6000396000f3fe608060405234801561001057600080fd5b506004361061010b5760003560e01c8063715018a6116100a2578063b88d4fde11610071578063b88d4fde1461021b578063c87b56dd1461022e578063cee28be114610241578063e985e9c514610254578063f2fde38b1461029057600080fd5b8063715018a6146101e75780638da5cb5b146101ef57806395d89b4114610200578063a22cb4651461020857600080fd5b806323b872dd116100de57806323b872dd1461018d57806342842e0e146101a05780636352211e146101b357806370a08231146101c657600080fd5b806301ffc9a71461011057806306fdde0314610138578063081812fc1461014d578063095ea7b314610178575b600080fd5b61012361011e3660046113d9565b6102a3565b60405190151581526020015b60405180910390f35b6101406102f5565b60405161012f919061144e565b61016061015b366004611461565b610387565b6040516001600160a01b03909116815260200161012f565b61018b610186366004611496565b610414565b005b61018b61019b3660046114c0565b61052a565b61018b6101ae3660046114c0565b61055b565b6101606101c1366004611461565b610576565b6101d96101d43660046114fc565b6105ed565b60405190815260200161012f565b61018b610674565b6007546001600160a01b0316610160565b6101406106aa565b61018b610216366004611517565b6106b9565b61018b6102293660046115df565b6106c8565b61014061023c366004611461565b610700565b6101d961024f36600461167b565b610877565b610123610262366004611739565b6001600160a01b03918216600090815260056020908152604080832093909416825291909152205460ff1690565b61018b61029e3660046114fc565b610989565b60006001600160e01b031982166380ac58cd60e01b14806102d457506001600160e01b03198216635b5e139f60e01b145b806102ef57506301ffc9a760e01b6001600160e01b03198316145b92915050565b6060600080546103049061176c565b80601f01602080910402602001604051908101604052809291908181526020018280546103309061176c565b801561037d5780601f106103525761010080835404028352916020019161037d565b820191906000526020600020905b81548152906001019060200180831161036057829003601f168201915b5050505050905090565b600061039282610a24565b6103f85760405162461bcd60e51b815260206004820152602c60248201527f4552433732313a20617070726f76656420717565727920666f72206e6f6e657860448201526b34b9ba32b73a103a37b5b2b760a11b60648201526084015b60405180910390fd5b506000908152600460205260409020546001600160a01b031690565b600061041f82610576565b9050806001600160a01b0316836001600160a01b0316141561048d5760405162461bcd60e51b815260206004820152602160248201527f4552433732313a20617070726f76616c20746f2063757272656e74206f776e656044820152603960f91b60648201526084016103ef565b336001600160a01b03821614806104a957506104a98133610262565b61051b5760405162461bcd60e51b815260206004820152603860248201527f4552433732313a20617070726f76652063616c6c6572206973206e6f74206f7760448201527f6e6572206e6f7220617070726f76656420666f7220616c6c000000000000000060648201526084016103ef565b6105258383610a41565b505050565b6105343382610aaf565b6105505760405162461bcd60e51b81526004016103ef906117a7565b610525838383610b95565b610525838383604051806020016040528060008152506106c8565b6000818152600260205260408120546001600160a01b0316806102ef5760405162461bcd60e51b815260206004820152602960248201527f4552433732313a206f776e657220717565727920666f72206e6f6e657869737460448201526832b73a103a37b5b2b760b91b60648201526084016103ef565b60006001600160a01b0382166106585760405162461bcd60e51b815260206004820152602a60248201527f4552433732313a2062616c616e636520717565727920666f7220746865207a65604482015269726f206164647265737360b01b60648201526084016103ef565b506001600160a01b031660009081526003602052604090205490565b6007546001600160a01b0316331461069e5760405162461bcd60e51b81526004016103ef906117f8565b6106a86000610d35565b565b6060600180546103049061176c565b6106c4338383610d87565b5050565b6106d23383610aaf565b6106ee5760405162461bcd60e51b81526004016103ef906117a7565b6106fa84848484610e56565b50505050565b606061070b82610a24565b6107715760405162461bcd60e51b815260206004820152603160248201527f45524337323155524953746f726167653a2055524920717565727920666f72206044820152703737b732bc34b9ba32b73a103a37b5b2b760791b60648201526084016103ef565b6000828152600660205260408120805461078a9061176c565b80601f01602080910402602001604051908101604052809291908181526020018280546107b69061176c565b80156108035780601f106107d857610100808354040283529160200191610803565b820191906000526020600020905b8154815290600101906020018083116107e657829003601f168201915b50505050509050600061082160408051602081019091526000815290565b9050805160001415610834575092915050565b81511561086657808260405160200161084e92919061182d565b60405160208183030381529060405292505050919050565b61086f84610e89565b949350505050565b6007546000906001600160a01b031633146108a45760405162461bcd60e51b81526004016103ef906117f8565b33600090815260096020908152604090912086516108c49288019061132a565b5033600090815260096020908152604090912085516108eb9260019092019187019061132a565b5033600090815260096020908152604090912084516109129260029092019186019061132a565b50610921600880546001019055565b600061092c60085490565b90506109388782610f61565b6109428184611094565b7fc1a5ce7b32f5102e7ce72aff630ef19bb846d3ab3b91e4d9e9c9e652090bac2486868684604051610977949392919061185c565b60405180910390a19695505050505050565b6007546001600160a01b031633146109b35760405162461bcd60e51b81526004016103ef906117f8565b6001600160a01b038116610a185760405162461bcd60e51b815260206004820152602660248201527f4f776e61626c653a206e6577206f776e657220697320746865207a65726f206160448201526564647265737360d01b60648201526084016103ef565b610a2181610d35565b50565b6000908152600260205260409020546001600160a01b0316151590565b600081815260046020526040902080546001600160a01b0319166001600160a01b0384169081179091558190610a7682610576565b6001600160a01b03167f8c5be1e5ebec7d5bd14f71427d1e84f3dd0314c0f7b2291e5b200ac8c7c3b92560405160405180910390a45050565b6000610aba82610a24565b610b1b5760405162461bcd60e51b815260206004820152602c60248201527f4552433732313a206f70657261746f7220717565727920666f72206e6f6e657860448201526b34b9ba32b73a103a37b5b2b760a11b60648201526084016103ef565b6000610b2683610576565b9050806001600160a01b0316846001600160a01b03161480610b615750836001600160a01b0316610b5684610387565b6001600160a01b0316145b8061086f57506001600160a01b0380821660009081526005602090815260408083209388168352929052205460ff1661086f565b826001600160a01b0316610ba882610576565b6001600160a01b031614610c105760405162461bcd60e51b815260206004820152602960248201527f4552433732313a207472616e73666572206f6620746f6b656e2074686174206960448201526839903737ba1037bbb760b91b60648201526084016103ef565b6001600160a01b038216610c725760405162461bcd60e51b8152602060048201526024808201527f4552433732313a207472616e7366657220746f20746865207a65726f206164646044820152637265737360e01b60648201526084016103ef565b610c7d600082610a41565b6001600160a01b0383166000908152600360205260408120805460019290610ca69084906118bd565b90915550506001600160a01b0382166000908152600360205260408120805460019290610cd49084906118d4565b909155505060008181526002602052604080822080546001600160a01b0319166001600160a01b0386811691821790925591518493918716917fddf252ad1be2c89b69c2b068fc378daa952ba7f163c4a11628f55a4df523b3ef91a4505050565b600780546001600160a01b038381166001600160a01b0319831681179093556040519116919082907f8be0079c531659141344cd1fd0a4f28419497f9722a3daafe3b4186f6b6457e090600090a35050565b816001600160a01b0316836001600160a01b03161415610de95760405162461bcd60e51b815260206004820152601960248201527f4552433732313a20617070726f766520746f2063616c6c65720000000000000060448201526064016103ef565b6001600160a01b03838116600081815260056020908152604080832094871680845294825291829020805460ff191686151590811790915591519182527f17307eab39ab6107e8899845ad3d59bd9653f200f220920489ca2b5937696c31910160405180910390a3505050565b610e61848484610b95565b610e6d8484848461111f565b6106fa5760405162461bcd60e51b81526004016103ef906118ec565b6060610e9482610a24565b610ef85760405162461bcd60e51b815260206004820152602f60248201527f4552433732314d657461646174613a2055524920717565727920666f72206e6f60448201526e3732bc34b9ba32b73a103a37b5b2b760891b60648201526084016103ef565b6000610f0f60408051602081019091526000815290565b90506000815111610f2f5760405180602001604052806000815250610f5a565b80610f398461122c565b604051602001610f4a92919061182d565b6040516020818303038152906040525b9392505050565b6001600160a01b038216610fb75760405162461bcd60e51b815260206004820181905260248201527f4552433732313a206d696e7420746f20746865207a65726f206164647265737360448201526064016103ef565b610fc081610a24565b1561100d5760405162461bcd60e51b815260206004820152601c60248201527f4552433732313a20746f6b656e20616c7265616479206d696e7465640000000060448201526064016103ef565b6001600160a01b03821660009081526003602052604081208054600192906110369084906118d4565b909155505060008181526002602052604080822080546001600160a01b0319166001600160a01b03861690811790915590518392907fddf252ad1be2c89b69c2b068fc378daa952ba7f163c4a11628f55a4df523b3ef908290a45050565b61109d82610a24565b6111005760405162461bcd60e51b815260206004820152602e60248201527f45524337323155524953746f726167653a2055524920736574206f66206e6f6e60448201526d32bc34b9ba32b73a103a37b5b2b760911b60648201526084016103ef565b600082815260066020908152604090912082516105259284019061132a565b60006001600160a01b0384163b1561122157604051630a85bd0160e11b81526001600160a01b0385169063150b7a029061116390339089908890889060040161193e565b602060405180830381600087803b15801561117d57600080fd5b505af19250505080156111ad575060408051601f3d908101601f191682019092526111aa9181019061197b565b60015b611207573d8080156111db576040519150601f19603f3d011682016040523d82523d6000602084013e6111e0565b606091505b5080516111ff5760405162461bcd60e51b81526004016103ef906118ec565b805181602001fd5b6001600160e01b031916630a85bd0160e11b14905061086f565b506001949350505050565b6060816112505750506040805180820190915260018152600360fc1b602082015290565b8160005b811561127a578061126481611998565b91506112739050600a836119c9565b9150611254565b60008167ffffffffffffffff81111561129557611295611553565b6040519080825280601f01601f1916602001820160405280156112bf576020820181803683370190505b5090505b841561086f576112d46001836118bd565b91506112e1600a866119dd565b6112ec9060306118d4565b60f81b818381518110611301576113016119f1565b60200101906001600160f81b031916908160001a905350611323600a866119c9565b94506112c3565b8280546113369061176c565b90600052602060002090601f016020900481019282611358576000855561139e565b82601f1061137157805160ff191683800117855561139e565b8280016001018555821561139e579182015b8281111561139e578251825591602001919060010190611383565b506113aa9291506113ae565b5090565b5b808211156113aa57600081556001016113af565b6001600160e01b031981168114610a2157600080fd5b6000602082840312156113eb57600080fd5b8135610f5a816113c3565b60005b838110156114115781810151838201526020016113f9565b838111156106fa5750506000910152565b6000815180845261143a8160208601602086016113f6565b601f01601f19169290920160200192915050565b602081526000610f5a6020830184611422565b60006020828403121561147357600080fd5b5035919050565b80356001600160a01b038116811461149157600080fd5b919050565b600080604083850312156114a957600080fd5b6114b28361147a565b946020939093013593505050565b6000806000606084860312156114d557600080fd5b6114de8461147a565b92506114ec6020850161147a565b9150604084013590509250925092565b60006020828403121561150e57600080fd5b610f5a8261147a565b6000806040838503121561152a57600080fd5b6115338361147a565b91506020830135801515811461154857600080fd5b809150509250929050565b634e487b7160e01b600052604160045260246000fd5b600067ffffffffffffffff8084111561158457611584611553565b604051601f8501601f19908116603f011681019082821181831017156115ac576115ac611553565b816040528093508581528686860111156115c557600080fd5b858560208301376000602087830101525050509392505050565b600080600080608085870312156115f557600080fd5b6115fe8561147a565b935061160c6020860161147a565b925060408501359150606085013567ffffffffffffffff81111561162f57600080fd5b8501601f8101871361164057600080fd5b61164f87823560208401611569565b91505092959194509250565b600082601f83011261166c57600080fd5b610f5a83833560208501611569565b600080600080600060a0868803121561169357600080fd5b61169c8661147a565b9450602086013567ffffffffffffffff808211156116b957600080fd5b6116c589838a0161165b565b955060408801359150808211156116db57600080fd5b6116e789838a0161165b565b945060608801359150808211156116fd57600080fd5b61170989838a0161165b565b9350608088013591508082111561171f57600080fd5b5061172c8882890161165b565b9150509295509295909350565b6000806040838503121561174c57600080fd5b6117558361147a565b91506117636020840161147a565b90509250929050565b600181811c9082168061178057607f821691505b602082108114156117a157634e487b7160e01b600052602260045260246000fd5b50919050565b60208082526031908201527f4552433732313a207472616e736665722063616c6c6572206973206e6f74206f6040820152701ddb995c881b9bdc88185c1c1c9bdd9959607a1b606082015260800190565b6020808252818101527f4f776e61626c653a2063616c6c6572206973206e6f7420746865206f776e6572604082015260600190565b6000835161183f8184602088016113f6565b8351908301906118538183602088016113f6565b01949350505050565b60808152600061186f6080830187611422565b82810360208401526118818187611422565b905082810360408401526118958186611422565b91505082606083015295945050505050565b634e487b7160e01b600052601160045260246000fd5b6000828210156118cf576118cf6118a7565b500390565b600082198211156118e7576118e76118a7565b500190565b60208082526032908201527f4552433732313a207472616e7366657220746f206e6f6e20455243373231526560408201527131b2b4bb32b91034b6b83632b6b2b73a32b960711b606082015260800190565b6001600160a01b038581168252841660208201526040810183905260806060820181905260009061197190830184611422565b9695505050505050565b60006020828403121561198d57600080fd5b8151610f5a816113c3565b60006000198214156119ac576119ac6118a7565b5060010190565b634e487b7160e01b600052601260045260246000fd5b6000826119d8576119d86119b3565b500490565b6000826119ec576119ec6119b3565b500690565b634e487b7160e01b600052603260045260246000fdfea26469706673582212204291e2d07c2a27090535923e20698e505ed3b1c43517c168905aa2674829c58864736f6c63430008090033",
  "devdoc": {
    "kind": "dev",
    "methods": {
      "approve(address,uint256)": {
        "details": "See {IERC721-approve}."
      },
      "balanceOf(address)": {
        "details": "See {IERC721-balanceOf}."
      },
      "getApproved(uint256)": {
        "details": "See {IERC721-getApproved}."
      },
      "isApprovedForAll(address,address)": {
        "details": "See {IERC721-isApprovedForAll}."
      },
      "name()": {
        "details": "See {IERC721Metadata-name}."
      },
      "owner()": {
        "details": "Returns the address of the current owner."
      },
      "ownerOf(uint256)": {
        "details": "See {IERC721-ownerOf}."
      },
      "renounceOwnership()": {
        "details": "Leaves the contract without owner. It will not be possible to call `onlyOwner` functions anymore. Can only be called by the current owner. NOTE: Renouncing ownership will leave the contract without an owner, thereby removing any functionality that is only available to the owner."
      },
      "safeTransferFrom(address,address,uint256)": {
        "details": "See {IERC721-safeTransferFrom}."
      },
      "safeTransferFrom(address,address,uint256,bytes)": {
        "details": "See {IERC721-safeTransferFrom}."
      },
      "setApprovalForAll(address,bool)": {
        "details": "See {IERC721-setApprovalForAll}."
      },
      "supportsInterface(bytes4)": {
        "details": "See {IERC165-supportsInterface}."
      },
      "symbol()": {
        "details": "See {IERC721Metadata-symbol}."
      },
      "tokenURI(uint256)": {
        "details": "See {IERC721Metadata-tokenURI}."
      },
      "transferFrom(address,address,uint256)": {
        "details": "See {IERC721-transferFrom}."
      },
      "transferOwnership(address)": {
        "details": "Transfers ownership of the contract to a new account (`newOwner`). Can only be called by the current owner."
      }
    },
    "version": 1
  },
  "userdoc": {
    "kind": "user",
    "methods": {},
    "version": 1
  },
  "storageLayout": {
    "storage": [
      {
        "astId": 2343,
        "contract": "src/Container/LoogieTank.sol:Membership",
        "label": "_name",
        "offset": 0,
        "slot": "0",
        "type": "t_string_storage"
      },
      {
        "astId": 2345,
        "contract": "src/Container/LoogieTank.sol:Membership",
        "label": "_symbol",
        "offset": 0,
        "slot": "1",
        "type": "t_string_storage"
      },
      {
        "astId": 2349,
        "contract": "src/Container/LoogieTank.sol:Membership",
        "label": "_owners",
        "offset": 0,
        "slot": "2",
        "type": "t_mapping(t_uint256,t_address)"
      },
      {
        "astId": 2353,
        "contract": "src/Container/LoogieTank.sol:Membership",
        "label": "_balances",
        "offset": 0,
        "slot": "3",
        "type": "t_mapping(t_address,t_uint256)"
      },
      {
        "astId": 2357,
        "contract": "src/Container/LoogieTank.sol:Membership",
        "label": "_tokenApprovals",
        "offset": 0,
        "slot": "4",
        "type": "t_mapping(t_uint256,t_address)"
      },
      {
        "astId": 2363,
        "contract": "src/Container/LoogieTank.sol:Membership",
        "label": "_operatorApprovals",
        "offset": 0,
        "slot": "5",
        "type": "t_mapping(t_address,t_mapping(t_address,t_bool))"
      },
      {
        "astId": 3295,
        "contract": "src/Container/LoogieTank.sol:Membership",
        "label": "_tokenURIs",
        "offset": 0,
        "slot": "6",
        "type": "t_mapping(t_uint256,t_string_storage)"
      },
      {
        "astId": 539,
        "contract": "src/Container/LoogieTank.sol:Membership",
        "label": "_owner",
        "offset": 0,
        "slot": "7",
        "type": "t_address"
      },
      {
        "astId": 4800,
        "contract": "src/Container/LoogieTank.sol:Membership",
        "label": "_tokenIds",
        "offset": 0,
        "slot": "8",
        "type": "t_struct(Counter)3762_storage"
      },
      {
        "astId": 4822,
        "contract": "src/Container/LoogieTank.sol:Membership",
        "label": "memberDataByOwner",
        "offset": 0,
        "slot": "9",
        "type": "t_mapping(t_address,t_struct(MemberData)4807_storage)"
      }
    ],
    "types": {
      "t_address": {
        "encoding": "inplace",
        "label": "address",
        "numberOfBytes": "20"
      },
      "t_bool": {
        "encoding": "inplace",
        "label": "bool",
        "numberOfBytes": "1"
      },
      "t_mapping(t_address,t_bool)": {
        "encoding": "mapping",
        "key": "t_address",
        "label": "mapping(address => bool)",
        "numberOfBytes": "32",
        "value": "t_bool"
      },
      "t_mapping(t_address,t_mapping(t_address,t_bool))": {
        "encoding": "mapping",
        "key": "t_address",
        "label": "mapping(address => mapping(address => bool))",
        "numberOfBytes": "32",
        "value": "t_mapping(t_address,t_bool)"
      },
      "t_mapping(t_address,t_struct(MemberData)4807_storage)": {
        "encoding": "mapping",
        "key": "t_address",
        "label": "mapping(address => struct Membership.MemberData)",
        "numberOfBytes": "32",
        "value": "t_struct(MemberData)4807_storage"
      },
      "t_mapping(t_address,t_uint256)": {
        "encoding": "mapping",
        "key": "t_address",
        "label": "mapping(address => uint256)",
        "numberOfBytes": "32",
        "value": "t_uint256"
      },
      "t_mapping(t_uint256,t_address)": {
        "encoding": "mapping",
        "key": "t_uint256",
        "label": "mapping(uint256 => address)",
        "numberOfBytes": "32",
        "value": "t_address"
      },
      "t_mapping(t_uint256,t_string_storage)": {
        "encoding": "mapping",
        "key": "t_uint256",
        "label": "mapping(uint256 => string)",
        "numberOfBytes": "32",
        "value": "t_string_storage"
      },
      "t_string_storage": {
        "encoding": "bytes",
        "label": "string",
        "numberOfBytes": "32"
      },
      "t_struct(Counter)3762_storage": {
        "encoding": "inplace",
        "label": "struct Counters.Counter",
        "members": [
          {
            "astId": 3761,
            "contract": "src/Container/LoogieTank.sol:Membership",
            "label": "_value",
            "offset": 0,
            "slot": "0",
            "type": "t_uint256"
          }
        ],
        "numberOfBytes": "32"
      },
      "t_struct(MemberData)4807_storage": {
        "encoding": "inplace",
        "label": "struct Membership.MemberData",
        "members": [
          {
            "astId": 4802,
            "contract": "src/Container/LoogieTank.sol:Membership",
            "label": "name",
            "offset": 0,
            "slot": "0",
            "type": "t_string_storage"
          },
          {
            "astId": 4804,
            "contract": "src/Container/LoogieTank.sol:Membership",
            "label": "profileId",
            "offset": 0,
            "slot": "1",
            "type": "t_string_storage"
          },
          {
            "astId": 4806,
            "contract": "src/Container/LoogieTank.sol:Membership",
            "label": "tags",
            "offset": 0,
            "slot": "2",
            "type": "t_string_storage"
          }
        ],
        "numberOfBytes": "96"
      },
      "t_uint256": {
        "encoding": "inplace",
        "label": "uint256",
        "numberOfBytes": "32"
      }
    }
  }
}